:10000000ABC00000C5C00000C3C00000C1C00000FC
:10001000BFC00000BDC00000BBC00000B9C00000F0
:10002000B7C00000B5C00000B3C00000D4C60000D7
:10003000AFC00000ADC00000ABC00000A9C0000010
:10004000A7C00000A5C00000A3C00000A1C0000020
:100050009FC000009DC000009BC0000099C0000030
:1000600097C0000095C0000093C0000091C0000040
:100070008FC000001C0350004900550020004800BC
:10008000490044002000560031002E0030003000AE
:1000900000000C0350004900550049004F000000CB
:1000A000120341004E00440041004D00490052003F
:1000B0004F0000000C034E00540044004500430074
:1000C00000000403090409022900010100C03209EB
:1000D0000400000203000000092111010001222098
:1000E0000007058103100001070502031000010647
:1000F00000FF0901A1010902150025FF75089510EF
:1001000081020903150025FF750895109102C009A9
:10011000021200010100C0320904000000000000CA
:100120000012011001000000082F0D401001000115
:1001300002000112011001000000082F0D20100123
:10014000000102000112010001FF00000847050242
:10015000100001010200010011241FBECFEFD2E008
:10016000DEBFCDBF11E0A0E0B1E0E0E1F2E102C00E
:1001700005900D92AC33B107D9F721E0ACE3B1E0C3
:1001800001C01D92A537B207E1F726D00C940609ED
:1001900037CF4AB121E030E0B90102C0660F771FC6
:1001A0008A95E2F7CB01462B4AB99BB1809589230A
:1001B0008BB908954AB121E030E0B90102C0660F61
:1001C000771F8A95E2F7CB01962F909594239AB9E1
:1001D0009BB1892B8BB90895CF93DF9300D0CDB716
:1001E000DEB7109245011092440120D389E190E0DE
:1001F0009093CD008093CC0086E08093CA0010924B
:10020000C80088E18093C900539A5A9A7894A8E468
:10021000B1E0E0E5F1E089E09FEF815009F08AC0AC
:1002200088E080933C0106E588D2D5D780914401CF
:1002300090914501893E934014F084E0AADF8091BB
:10024000440190914501813D974034F084E0B2DF54
:1002500010924501109244018091500180933D011C
:100260008091520180933E01809153019091510100
:1002700092FF63C0806880933F018091C80085FF32
:10028000FCCF0093CE00F12CE12C8091C80087FFB9
:1002900056C08091C80087FD5CC019811093400151
:1002A000FA80F092410185E01F3F21F42FEFF21612
:1002B00009F49CC06EDF9091490180914B0115FDBE
:1002C00097C09F77909349018F7780934B019091CE
:1002D000490180914B0116FD90C09F7B909349018D
:1002E0008F7B80934B019091490180914B01F5FCEC
:1002F00089C09D7F909349018D7F80934B01212F71
:10030000206E209340018091490117FD80C08B7FB2
:10031000809349019F2D906A9093410180914B01F8
:10032000F7FC77C08B7F80934B012093480190931B
:100330004A017ACF9D93119270CF8F779CCF8FEF28
:10034000E81AF80A90E1E91697E2F90609F09DCF5C
:100350006BCF8091C80087FF12C08091CE008E3A8B
:1003600009F03FC010923C01E0913C01E33050F0B5
:1003700010923C0180913C018230E8F08ACF8FEFEF
:100380009FEFEDCFF0E0E35CFE4F80819091C800DD
:1003900095FFFCCF8093CE0080913C018F5F8093CE
:1003A0003C01E2CF2FEFE21AF20A90E1E91697E260
:1003B000F9060CF039CF9091C80097FFF3CF9091D8
:1003C000C8002FEF3FEF97FD2091CE00E1E0F0E075
:1003D000EC0FFD1FE80FF11D20838F5F80933C0120
:1003E000C9CF8F3D09F055CF4ED253CFE3DE63CF57
:1003F000906890934901806868CF90649093490118
:1004000080646FCF926090934901826076CF846060
:100410007FCF846088CF292F332723303105F1F136
:1004200058F421303105D1F02230310529F190E026
:1004300080E0F0E0E0E00EC089E090E0E8EDF0E080
:100440002132310539F080E290E0EFEEF0E0223227
:10045000310569F7DA01ED93FC930895E0911801F5
:10046000F0911901EE0FFF1FEE5EFE4F0190F0813B
:10047000E02D82E190E0EECF80911801909119017A
:10048000880F991FFC01E45FFE4F0190F081E02D81
:10049000855D9E4FDC018D919C91DCCF9927813049
:1004A000910589F058F0029711F6E0911801F0914A
:1004B0001901EE0FFF1FE050FF4F0DC0E2ECF0E01E
:1004C000849190E0C7CFE0911801F0911901EE0FEF
:1004D000FF1FEA5FFE4F0190F081E02DF1CF0895FC
:1004E00008958091180190911901892B41F061E0E4
:1004F00086E391E09ED361E081E391E09AD380911D
:10050000E20084608093E200089580916E018E3A4B
:1005100041F58091180190911901892B11F5809175
:1005200044019091450101969093450180934401C7
:1005300080916D011092E90087FD14C08091E80060
:1005400080FFFCCF8091E800877F8093E80068E01F
:1005500070E080E591E0A5D28091E8008E778093ED
:10056000E80008958091E800877F8093E80068E0C4
:1005700070E088E491E039D28091E8008B77EFCF8A
:10058000CF93DF93CDB7DEB760970FB6F894DEBF99
:100590000FBECDBF80916E01833009F458C070F456
:1005A000813089F1823009F49AC060960FB6F894D0
:1005B000DEBF0FBECDBFDF91CF9108958A3009F421
:1005C00073C08B3009F45CC0893079F780916D017C
:1005D000813259F78091E800877F8093E80060E1DD
:1005E00070E0CE0101965DD28091E8008E77809315
:1005F000E80080E1FE013196A8E5B1E001900D929E
:100600008A95E1F7D2CF80916D01813A71F6909190
:100610006F0180E1EBE1F1E0DE01119601900D92B6
:100620008A95E1F71092E9008091E800877F809336
:10063000E80091119093F10060E170E0CE01019625
:10064000D4D18091E8008B778093E800AECF809181
:100650006D01813A09F0A9CF8091E800877F8093EE
:10066000E8008091E80080FFFCCF80911A01809320
:10067000F1008091E8008E778093E80016D395CF43
:1006800080916D01813209F090CF8091E800877FE1
:100690008093E8000AD390916F0181E0911101C02D
:1006A00080E080931A0181CF80916D01813209F041
:1006B0007CCF8091E800877F8093E800F6D280911C
:1006C0006F019091700136E0969587953A95E1F724
:1006D0008C7F9370909343018093420166CF809109
:1006E0006D01813A09F061CF8091E800877F8093A6
:1006F000E8008091E80080FFFCCF8091420190915A
:1007000043019695879596958795B1CF8091E8009E
:1007100083FF11C08091710190917201892B59F46E
:100720008091180190911901009709F4EECE01977C
:10073000029708F425CF08950895809118019091AB
:100740001901892B09F46AC08091480180931B012B
:1007500080931C0180931D0180931E0180914A01AA
:1007600080931F01809320018093210180932201B7
:10077000809149018093230180914B018093240152
:100780008FEF809325018093260180932901809328
:100790002A0181E08093E9008091E80080FF15C084
:1007A0008091440190914501019690934501809379
:1007B000440150E040E060E170E08BE191E079D0ED
:1007C0008091E8008E778093E80082E08093E900D2
:1007D0008091E80082FF19C08091E80085FF10C079
:1007E0008091440190914501019690934501809339
:1007F000440150E040E060E170E088E591E0A7D07E
:100800008091E8008B778093E80088E0E8E5F1E0EC
:10081000A0E5B1E001900D928A95E1F70895F9996C
:10082000FECF92BD81BDF89A80B50895A89584B792
:10083000877F84BF0FB6F894A89580916000886187
:1008400080936000109260000FBE80E890E00FB6C9
:10085000F89480936100909361000FBE90E080E077
:10086000DEDF90E090931901809318019093470187
:1008700080934601A1C2F999FECF92BD81BD60BDB2
:10088000FA9AF99A0895809146019091470101964C
:10089000833091054CF49093470180934601609119
:1008A000460190E080E0E7CF1092470110924601A8
:1008B000F6CFAF92BF92CF92DF92FF920F931F932A
:1008C000CF93DF936C01EB018A010ED2F82E8111D8
:1008D00024C00115110539F0F80180819181C81BF0
:1008E000D90BC80ED91EB12CA12C2097B1F0809144
:1008F000E80085FD22C08091E8008E778093E800B3
:100900006AD401151105A1F0F80180819181A80E2A
:10091000B91EB182A08285E0F82E8F2DDF91CF9194
:100920001F910F91FF90DF90CF90BF90AF900895EF
:10093000DBD18823D1F2F82EF0CFF60181916F013F
:100940008093F1002197FFEFAF1ABF0ACECFAF928D
:10095000BF92CF92DF92FF920F931F93CF93DF93BB
:100960006C01EB018A01C0D1F82E811124C0011560
:10097000110539F0F80180819181C81BD90BC80E8F
:10098000D91EB12CA12C2097B1F08091E80085FDF3
:1009900022C08091E8008B778093E8001CD4011579
:1009A0001105A1F0F80180819181A80EB91EB182D4
:1009B000A08285E0F82E8F2DDF91CF911F910F91AE
:1009C000FF90DF90CF90BF90AF9008958DD1882396
:1009D000D1F2F82EF0CF8091F100F60181936F01F2
:1009E0002197FFEFAF1ABF0ACECFFC0180917301B0
:1009F0009091740186179707A0F06115710529F48D
:100A00009091E8009E779093E80090E06115710561
:100A100051F4911108C08091E80082FF32C080E05B
:100A20000895BC01F2CF80916C018823B1F185302B
:100A3000B1F18091E80083FD2EC08091E80082FD35
:100A4000EACF8091E80080FFE1CF2091F20030E012
:100A50006115710519F02830310558F091E0283002
:100A6000310509F090E02091E8002E772093E8000E
:100A7000CDCF81918093F100615071092F5F3F4F7D
:100A8000E7CF80916C01882341F0853041F080915F
:100A9000E80083FFC0CF81E0089582E0089583E0FD
:100AA0000895FC016115710529F49091E8009B7788
:100AB0009093E8006115710531F48091E80080FFA2
:100AC0001BC080E0089580916C018823F9F0853087
:100AD000C9F08091E80083FD17C08091E80082FF93
:100AE000E9CF8091F200882301F38091F100819396
:100AF00061507109B1F7D9CF80916C01882331F031
:100B00008530D9F683E0089581E0089582E0089564
:100B1000FC01809173019091740186179707A0F0F2
:100B20006115710529F48091E8008E778093E800C3
:100B300090E06115710551F4911108C08091E800B1
:100B400082FF33C080E00895BC01F2CF80916C0138
:100B50008823B9F18530B9F18091E80083FD2FC079
:100B60008091E80082FDEACF8091E80080FFE1CF2C
:100B70002091F20030E06115710519F0283031053F
:100B800058F091E02830310509F090E08091E800BC
:100B90008E778093E800CDCF84918093F1003196D9
:100BA000615071092F5F3F4FE6CF80916C01882320
:100BB00041F0853041F08091E80083FFBFCF81E0B4
:100BC000089582E0089583E00895982F953028F0E5
:100BD0008F708093E90081E008959093E900242FBD
:100BE000762F50E0981731F07091EC002091ED00D5
:100BF0005091F00021FD02C09F5FE8CF3091EB00E3
:100C00003E7F3093EB003091ED003D7F3093ED005F
:100C10003091EB0031603093EB007093EC00209347
:100C2000ED005093F0002091EE0027FDE5CF80E02D
:100C300008950F931F93CF93DF93062FEC0110E0DD
:100C4000101302C081E00FC02881211103C01F5F73
:100C50002596F6CF9C81A981BA816B81822F8F70F6
:100C6000853030F080E0DF91CF911F910F91089592
:100C700042E0923008F046E0E8E0F0E090E0EA1769
:100C8000FB0778F09295907F492B6295660F660F6F
:100C9000607C221F2227221F622B97DF8111D7CF72
:100CA000E1CF9F5FEE0FFF1FEACF80916D0187FFBD
:100CB00013C08091E80082FF06C08091E8008B7726
:100CC0008093E80004C080916C018111F2CF0895F7
:100CD00080916C018823D9F38091E80080FFF8CFE0
:100CE0008091E8008E77ECCF2091E4003091E50010
:100CF00085E69091EC0090FF06C09091E80090FF8F
:100D000006C080E008959091E80092FDFACF90919E
:100D10006C01992391F0953091F09091EB0095FD45
:100D200010C04091E4005091E5002417350709F305
:100D300081509A01F1F684E0089582E0089583E0FD
:100D4000089581E0089541D043D08091D8008F77F5
:100D50008093D8008091D80080688093D8008091DB
:100D6000D8008F7D8093D80084E089BD86E089BD5E
:100D700009B400FEFDCF10926C0110926801109230
:100D80006A011092690142E060E080E01EDF80911C
:100D9000E1008E7F8093E1008091E200816080938A
:100DA000E2008091E20088608093E2008091E000A0
:100DB0008E7F8093E0000895E3E6F0E080818E7FEF
:100DC000808381E080936B01BECF1092E200089592
:100DD0001092E10008951F920F920FB60F92112406
:100DE0002F933F934F935F936F937F938F939F9333
:100DF000AF93BF93EF93FF938091E10082FF0AC00E
:100E00008091E20082FF06C08091E1008B7F809399
:100E1000E10092DC8091E10080FF17C08091E20048
:100E200080FF13C08091E2008E7F8093E20080916A
:100E3000E20080618093E2008091D800806280931C
:100E4000D80019BC10926C014BDB8091E10084FF4B
:100E500027C08091E20084FF23C084E089BD86E042
:100E600089BD09B400FEFDCF8091D8008F7D8093AD
:100E7000D8008091E1008F7E8093E1008091E200B4
:100E80008F7E8093E2008091E20081608093E20097
:100E9000809168018823D9F184E080936C011FDB85
:100EA0008091E10083FF22C08091E20083FF1EC099
:100EB0008091E100877F8093E10082E080936C0164
:100EC000109268018091E1008E7F8093E100809113
:100ED000E2008E7F8093E2008091E2008061809347
:100EE000E20042E060E080E070DE74D1FF91EF91BB
:100EF000BF91AF919F918F917F916F915F914F9132
:100F00003F912F910F900FBE0F901F9018958091D9
:100F1000E30087FD02C081E0C0CF83E0BECF1F9316
:100F2000CF93DF93CDB7DEB7AA970FB6F894DEBFA5
:100F30000FBECDBFEDE6F1E08091F100819321E09D
:100F4000E537F207C9F7E2DB8091E80083FF10C0C4
:100F500080916D0190916E01953009F4D8C000F533
:100F6000913009F48BC008F461C0933009F486C055
:100F70008091E80083FF0AC08091E800877F80931A
:100F8000E8008091EB0080628093EB00AA960FB698
:100F9000F894DEBF0FBECDBFDF91CF911F910895B2
:100FA000983009F4ECC0993009F4F6C0963001F796
:100FB00080588230E8F680916F01909170018C3DED
:100FC00023E0920709F0C6C083E08A838AE289831E
:100FD0004FB7F894DE01139620E03EE051E2E32F94
:100FE000F0E050935700E49120FF03C0E295EF70CA
:100FF0003F5FEF708E2F90E0EA3008F4A9C0C796EB
:101000008D939D932F5F243151F74FBF8091E8005E
:10101000877F8093E8006AE270E0CE010196E5DC0C
:101020008091E8008B778093E800A2CF803899F018
:10103000823809F09DCF809171018F70853008F062
:1010400097CF8093E9008091EB0085FB882780F99A
:101050001092E90006C08091690190916A01911196
:1010600082609091E800977F9093E8008093F10070
:101070001092F1008091E8008E7732C0282F2D7FEA
:1010800009F076CF8823E9F0823009F071CF8091A2
:101090006F01811120C0809171018F702FEF280F97
:1010A000243008F065CF8093E9002091EB0020FF09
:1010B00012C09330C9F48091EB0080628093EB0002
:1010C0000AC080916F01813009F052CF933009F04E
:1010D00080E080936A011092E9008091E800877FA8
:1010E0008093E800E2DD44CF9091EB009061909313
:1010F000EB0021E030E001C0220F8A95EAF720934F
:10110000EA001092EA008091EB008860D7CF81114D
:101110002FCF10916F011F778091E3008078812B92
:101120008093E3008091E800877F8093E800BDDD35
:101130008091E80080FFFCCF8091E300806880937D
:10114000E30083E0111101C082E080936C0110CFB5
:10115000C09656CF6091710170917201AE014F5FE0
:101160005F4F59D9BC01892B09F402CF9091E80057
:10117000977F9093E80089819A81CADC51CF8038AB
:1011800009F0F6CE8091E800877F8093E800809197
:1011900068018093F1006ECF8111EACE90916F01CA
:1011A000923008F0E5CE8091E800877F8093E800D8
:1011B000909368017ADD80916801882329F084E0AA
:1011C00080936C018ED9D4CE8091E30087FDF7CF58
:1011D00081E0F6CF0895CF9380916C01882391F040
:1011E000C091E900CF708091EC0080FD0DC080E0DF
:1011F000C82B1092E9008091E80083FD90DECF704B
:10120000C093E900CF91089580E8F2CFF894FFCF22
:10121000920074007400B400A000A0000F01C6008A
:10122000C60045013301210101000100000000005A
:10123000000000000000000000FFFF12002900294C
:0C124000000210000301811000030100F7
:00000001FF
