:100000005BC0000074C0000072C0000070C000003F
:100010006EC000006CC000006AC0000068C0000034
:1000200066C0000064C0000062C00000ABC30000F6
:100030005EC000005CC000005AC0000058C0000054
:1000400056C0000054C0000052C0000050C0000064
:100050004EC000004CC000004AC0000048C0000074
:1000600046C0000044C0000042C0000040C0000084
:100070003EC000000C0350004900550049004F00ED
:1000800000000C0343004B004400550052000000E8
:100090000403090409021200010100C0320904002E
:1000A00000000000000012010001FF0000084705E9
:1000B000021000010102000111241FBECFEFD2E0A7
:1000C000DEBFCDBF11E0A0E0B1E0EEEBFBE002C08F
:1000D00005900D92A030B107D9F721E0A0E0B1E082
:1000E00001C01D92A532B207E1F790D066C588CF56
:1000F0004AB121E030E0B90102C0660F771F8A954E
:10010000E2F7CB01462B4AB99BB1809589238BB985
:1001100008954AB121E030E0B90102C0660F771FAF
:100120008A95E2F7CB01962F909594239AB99BB1CB
:10013000892B8BB90895A89584B7877F84BF0FB6A4
:10014000F894A89580916000886180936000109277
:1001500060000FBE80E890E00FB6F89480936100D5
:10016000909361000FBE89E190E09093CD00809361
:10017000CC0086E08093CA001092C80088E180938A
:10018000C900539A5A9AEFC208950895E2EEF0E03A
:1001900080818460808308958091E80083FF26C079
:1001A00080911E018E3A11F580910001909101011C
:1001B0000196909301018093000180911D0110929E
:1001C000E90087FD14C08091E80080FFFCCF80919A
:1001D000E800877F8093E80068E070E08BE091E0C2
:1001E000A2D18091E8008E778093E80008958091F5
:1001F000E800877F8093E80068E070E083E091E0AA
:1002000036D18091E8008B77EFCF0895CF93DF93BD
:1002100000D0CDB7DEB710920101109200018BDF44
:100220007894E3E0F1E0ABE0B1E089E09FEF81504A
:1002300009F089C088E08093020106E5A3D480918B
:10024000000190910101893E934014F084E050DF59
:100250008091000190910101813D974034F084E04C
:1002600058DF109201011092000180910B018093E0
:10027000130180910D018093140180910E019091E2
:100280000C0192FF63C08068809315018091C800C3
:1002900085FFFCCF0093CE0090E080E02091C80065
:1002A00027FF56C02091C80027FD59C0198110931F
:1002B0001601FA80F09217011F3F21F48FEFF81614
:1002C00009F48FC085E014DF90910401809106014C
:1002D00015FD8AC09F77909304018F778093060164
:1002E000909104018091060116FD83C09F7B90933D
:1002F00004018F7B80930601909104018091060197
:10030000F5FC7CC09D7F909304018D7F8093060156
:10031000212F206E209316018091040117FD73C0D8
:100320008B7F809304019F2D906A90931701809199
:100330000601F7FC6AC08B7F8093060120930301BE
:10034000909305017BCF91931D9271CF8F779CCFB6
:100350000196803127E2920709F0A0CF6FCF20915C
:10036000C80027FF9FCF2091CE002E3A09F09ACFE8
:1003700010920201E0910201E33038F01092020184
:10038000209102012230B8F08DCFF0E0ED5EFE4FFB
:1003900020813091C80035FFFCCF2093CE00209102
:1003A00002012F5F20930201E5CF0196803137E2F1
:1003B00093070CF043CF3091C80037FFF6CF309150
:1003C000C8004FEF5FEF37FD4091CE00E1E0F0E075
:1003D000EC0FFD1FE20FF11D40832F5F2093020100
:1003E000CFCF85E096DE70CF90689093040180684F
:1003F00075CF90649093040180647CCF9260909359
:100400000401826083CF84608CCF846095CF292FD4
:1004100033272230310571F02330310581F021304E
:100420003105A1F482E190E026EA30E0FA0131835F
:100430002083089582E190E024E930E0F7CF992706
:100440008130910571F038F0029771F090E080E012
:1004500030E020E0EBCFE0E9F0E0849190E09F0114
:10046000E5CFE2E8F0E0F9CFE4E7F0E0F6CFFC0119
:10047000809123019091240186179707A0F06115C0
:10048000710529F49091E8009E779093E80090E040
:100490006115710551F4911108C08091E80082FF47
:1004A00032C080E00895BC01F2CF80911C01882306
:1004B000B1F18530B1F18091E80083FD2EC08091CB
:1004C000E80082FDEACF8091E80080FFE1CF209133
:1004D000F20030E06115710519F02830310558F04F
:1004E00091E02830310509F090E02091E8002E7766
:1004F0002093E800CDCF81918093F1006150710984
:100500002F5F3F4FE7CF80911C01882341F085305A
:1005100041F08091E80083FFC0CF81E0089582E040
:10052000089583E00895FC016115710529F4909107
:10053000E8009B779093E8006115710531F4809194
:10054000E80080FF1BC080E0089580911C01882393
:10055000F9F08530C9F08091E80083FD17C08091E3
:10056000E80082FFE9CF8091F200882301F38091B7
:10057000F100819361507109B1F7D9CF80911C01CD
:10058000882331F08530D9F683E0089581E008951D
:1005900082E00895FC018091230190912401861747
:1005A0009707A0F06115710529F48091E8008E7716
:1005B0008093E80090E06115710551F4911108C035
:1005C0008091E80082FF33C080E00895BC01F2CF43
:1005D00080911C018823B9F18530B9F18091E80040
:1005E00083FD2FC08091E80082FDEACF8091E80072
:1005F00080FFE1CF2091F20030E06115710519F024
:100600002830310558F091E02830310509F090E0AC
:100610008091E8008E778093E800CDCF849180931D
:10062000F1003196615071092F5F3F4FE6CF809105
:100630001C01882341F0853041F08091E80083FF60
:10064000BFCF81E0089582E0089583E00895982F58
:10065000953028F08F708093E90081E008959093A1
:10066000E900242F762F50E0981731F07091EC00BC
:100670002091ED005091F00021FD02C09F5FE8CF76
:100680003091EB003E7F3093EB003091ED003D7FE9
:100690003093ED003091EB0031603093EB007093BC
:1006A000EC002093ED005093F0002091EE0027FD28
:1006B000E5CF80E0089580911D0187FF13C08091F0
:1006C000E80082FF06C08091E8008B778093E80005
:1006D00004C080911C018111F2CF089580911C010A
:1006E0008823D9F38091E80080FFF8CF8091E8005B
:1006F0008E77ECCF41D043D08091D8008F77809314
:10070000D8008091D80080688093D8008091D8006C
:100710008F7D8093D80084E089BD86E089BD09B4CF
:1007200000FEFDCF10921C011092180110921A01C8
:100730001092190142E060E080E089DF8091E100E1
:100740008E7F8093E1008091E20081608093E200DF
:100750008091E20088608093E2008091E0008E7FCB
:100760008093E0000895E3E6F0E080818E7F80834F
:1007700081E080931B01BECF1092E2000895109299
:10078000E10008951F920F920FB60F9211242F933C
:100790003F934F935F936F937F938F939F93AF9309
:1007A000BF93EF93FF938091E10082FF0AC0809195
:1007B000E20082FF06C08091E1008B7F8093E10020
:1007C00024DD8091E10080FF17C08091E20080FF6E
:1007D00013C08091E2008E7F8093E2008091E2005E
:1007E00080618093E2008091D80080628093D8007D
:1007F00019BC10921C01C9DC8091E10084FF27C064
:100800008091E20084FF23C084E089BD86E089BD39
:1008100009B400FEFDCF8091D8008F7D8093D80071
:100820008091E1008F7E8093E1008091E2008F7ED5
:100830008093E2008091E20081608093E2008091E9
:1008400018018823D9F184E080931C019DDC8091FC
:10085000E10083FF22C08091E20083FF1EC08091EF
:10086000E100877F8093E10082E080931C01109279
:1008700018018091E1008E7F8093E1008091E20079
:100880008E7F8093E2008091E20080618093E2009D
:1008900042E060E080E0DBDE74D1FF91EF91BF9138
:1008A000AF919F918F917F916F915F914F913F9108
:1008B0002F910F900FBE0F901F9018958091E3001D
:1008C00087FD02C081E0C0CF83E0BECF1F93CF93EE
:1008D000DF93CDB7DEB7AA970FB6F894DEBF0FBE91
:1008E000CDBFEDE1F1E08091F100819321E0E532AF
:1008F000F207C9F751DC8091E80083FF10C08091B6
:100900001D0190911E01953009F4D8C000F5913079
:1009100009F48BC008F461C0933009F486C080915B
:10092000E80083FF0AC08091E800877F8093E80099
:100930008091EB0080628093EB00AA960FB6F8944A
:10094000DEBF0FBECDBFDF91CF911F9108959830CC
:1009500009F4ECC0993009F4F6C0963001F78058DC
:100960008230E8F680911F01909120018C3D23E0B8
:10097000920709F0C6C083E08A838AE289834FB771
:10098000F894DE01139620E03EE051E2E32FF0E020
:1009900050935700E49120FF03C0E295EF703F5F52
:1009A000EF708E2F90E0EA3008F4A9C0C7968D93BF
:1009B0009D932F5F243151F74FBF8091E800877FCF
:1009C0008093E8006AE270E0CE01019650DD8091EC
:1009D000E8008B778093E800A2CF803899F08238C6
:1009E00009F09DCF809121018F70853008F097CF5D
:1009F0008093E9008091EB0085FB882780F91092B5
:100A0000E90006C08091190190911A01911182604C
:100A10009091E800977F9093E8008093F100109206
:100A2000F1008091E8008E7732C0282F2D7F09F0E9
:100A300076CF8823E9F0823009F071CF80911F01D1
:100A4000811120C0809121018F702FEF280F243059
:100A500008F065CF8093E9002091EB0020FF12C0E1
:100A60009330C9F48091EB0080628093EB000AC060
:100A700080911F01813009F052CF933009F080E05E
:100A800080931A011092E9008091E800877F80939B
:100A9000E80011DE44CF9091EB0090619093EB0061
:100AA00021E030E001C0220F8A95EAF72093EA00A6
:100AB0001092EA008091EB008860D7CF81112FCF90
:100AC00010911F011F778091E3008078812B809324
:100AD000E3008091E800877F8093E800ECDD80915F
:100AE000E80080FFFCCF8091E30080688093E30002
:100AF00083E0111101C082E080931C0110CFC096E9
:100B000056CF6091210170912201AE014F5F5F4F7E
:100B10007EDCBC01892B09F402CF9091E800977F1D
:100B20009093E80089819A8135DD51CF803809F0B2
:100B3000F6CE8091E800877F8093E80080911801CD
:100B40008093F1006ECF8111EACE90911F01923017
:100B500008F0E5CE8091E800877F8093E8009093CD
:100B60001801A9DD80911801882329F084E0809381
:100B70001C010CDBD4CE8091E30087FDF7CF81E030
:100B8000F6CF0895CF9380911C01882391F0C091F6
:100B9000E900CF708091EC0080FD0DC080E0C82B93
:100BA0001092E9008091E80083FD90DECF70C09341
:0E0BB000E900CF91089580E8F2CFF894FFCFCE
:00000001FF
