:1000000077C0000090C000008EC000008CC00000CF
:100010008AC0000088C0000086C0000084C00000C4
:1000200082C0000080C00000C9C300007CC0000086
:100030007AC0000078C0000076C0000074C00000E4
:1000400072C0000070C000006EC000006CC00000F4
:100050006AC0000068C0000066C0000064C0000004
:1000600062C0000060C000005EC000005CC0000014
:100070005AC0000058C0000056C0000054C0000024
:1000800052C0000050C000004EC000004CC0000034
:100090004AC0000048C0000046C0000044C0000044
:1000A00042C0000040C000003EC000000C035000F1
:1000B0004900550049004F0000000C0343004B006D
:1000C0004400550052000000040309040902120014
:1000D000010100C03209040000000000000012010C
:1000E0000001FF00000847050210000101020001A5
:1000F00011241FBECFEFDAE0DEBFCDBF11E0A0E0DC
:10010000B1E0ECE3FCE002C005900D92A030B10735
:10011000D9F721E0A0E0B1E001C01D92AF31B207F4
:10012000E1F75DD089C56CCFA89584B7877F84BF80
:100130000FB6F894A8958091600088618093600064
:10014000109260000FBE80E890E00FB6F8948093A4
:100150006100909361000FBE14C308950895E2EE0C
:10016000F0E080818460808308958091E80083FFBF
:1001700026C0809118018E3A11F58091000190916E
:100180000101019690930101809300018091170174
:100190001092E90087FD14C08091E80080FFFCCF39
:1001A0008091E800877F8093E80068E070E08AE053
:1001B00091E0B9D18091E8008E778093E8000895AE
:1001C0008091E800877F8093E80068E070E082E03B
:1001D00091E04AD18091E8008B77EFCF089510929B
:1001E000010110920001A0DF7894E2E0F1E0AAE0C2
:1001F000B1E08FEF81931D9221E0EA30F207D1F751
:1002000024982C9A54985C9A26982E9A57985F9A1C
:100210005198599A6E98769A5098589A25982D9A8E
:100220003E98469A53985B9A56985E9A27982F9ACA
:100230003F98479A879A869A819A849AE2D48091C5
:10024000000190910101893E93400CF0289A809121
:10025000000190910101813D97402CF02898109267
:10026000010110920001809102011C9BA5C08160D8
:1002700080930201809102014C9BA0C08260809318
:100280000201809102011E9B9BC084608093020149
:1002900029B18091020130E0220F232F221F330B5E
:1002A000232B09F48FC088608093020180910201A2
:1002B000499B8AC080618093020180910401669B02
:1002C00085C081608093040180910401489B80C0B7
:1002D000826080930401809104011D9B7BC0846037
:1002E0008093040180910401369B76C088608093DE
:1002F0000401809104014B9B71C0806180930401D3
:10030000809103014E9B6CC08064809303018091B7
:1003100005014E9B67C080648093050123B18091E5
:10032000030130E0220F232F221F330B232B09F46C
:100330005BC082608093030123B18091050130E0AE
:10034000220F232F221F330B232B09F44FC082606F
:100350008093050126B18091030130E0220F232F05
:10036000221F330B232B09F443C0846080930301C5
:1003700080910B0182FF3EC08F9A80910C0187FF14
:100380003BC08E9A80910D0180FF38C0899A81FF11
:1003900037C08C9A809102018F3F61F480910301F4
:1003A0008F3F41F4809104018F3F21F4809105013A
:1003B0008F3F41F15D9842CF8E7F5ACF8D7F5FCFC7
:1003C0008B7F64CF877F70CF8F7E75CF8E7F7ACF04
:1003D0008D7F7FCF8B7F84CF877F89CF8F7E8ECF9E
:1003E0008F7B93CF8F7B98CF8D7FA4CF8D7FB0CF26
:1003F0008B7FBCCF8F98C1CF8E98C4CF8998C7CF41
:100400008C98C8CF5D9A1ACF292F33272230310517
:1004100071F02330310581F021303105A1F482E102
:1004200090E02EED30E0FA0131832083089582E1DF
:1004300090E02CEC30E0F7CF99278130910571F0F6
:1004400038F0029771F090E080E030E020E0EBCFF0
:10045000E8ECF0E0849190E09F01E5CFEAEBF0E07A
:10046000F9CFECEAF0E0F6CFFC0180911D0190910C
:100470001E0186179707A0F06115710529F4909168
:10048000E8009E779093E80090E06115710551F4C3
:10049000911108C08091E80082FF35C080E0089586
:1004A000BC01F2CF809116018823C9F18530C9F1D2
:1004B0008091E80083FD31C08091E80082FDEACFA1
:1004C0008091E80080FFE1CF2091F3008091F2005D
:1004D000322F282F6115710519F02830310558F099
:1004E00091E02830310509F090E02091E8002E7766
:1004F0002093E800CACF81918093F1006150710987
:100500002F5F3F4FE7CF80911601882341F0853060
:1005100041F08091E80083FFBDCF81E0089582E043
:10052000089583E00895FC016115710529F4909107
:10053000E8009B779093E8006115710531F4809194
:10054000E80080FF1FC080E0089580911601882395
:1005500019F18530E9F08091E80083FD1BC080919E
:10056000E80082FFE9CF2091F3008091F200322F62
:10057000282F232BE1F28091F100819361507109C2
:1005800091F7D5CF80911601882331F08530B9F6E7
:1005900083E0089581E0089582E00895FC01809150
:1005A0001D0190911E0186179707A0F06115710536
:1005B00029F48091E8008E778093E80090E061153F
:1005C000710551F4911108C08091E80082FF36C096
:1005D00080E00895BC01F2CF809116018823D1F10B
:1005E0008530D1F18091E80083FD32C08091E80030
:1005F00082FDEACF8091E80080FFE1CF2091F300F7
:100600008091F200322F282F6115710519F02830E2
:10061000310558F091E02830310509F090E08091E3
:10062000E8008E778093E800CACF84918093F10030
:100630003196615071092F5F3F4FE6CF80911601CF
:10064000882341F0853041F08091E80083FFBCCFE2
:1006500081E0089582E0089583E00895982F97300F
:1006600028F08F708093E90081E008959093E9006D
:10067000242F762F50E0981731F07091EC002091E4
:10068000ED005091F00021FD02C09F5FE8CF309156
:10069000EB003E7F3093EB003091ED003D7F3093D7
:1006A000ED003091EB0031603093EB007093EC0083
:1006B0002093ED005093F0002091EE0027FDE5CF50
:1006C00080E008958091170187FF13C08091E800B2
:1006D00082FF06C08091E8008B778093E80004C019
:1006E000809116018111F2CF08958091160188231F
:1006F000D9F38091E80080FFF8CF8091E8008E77F1
:10070000ECCF0F931F93CF93DF934BD052D0C8ED14
:10071000D0E088818F77888388818068888388810A
:100720008F7D888319BC10921601109212011092CD
:1007300014011092130100EE10E0F80180818B7F0C
:10074000808388818160888342E060E080E086DF8A
:10075000E1EEF0E080818E7F8083E2EEF0E0808148
:1007600081608083808188608083F80180818E7FB2
:100770008083888180618883DF91CF911F910F9161
:100780000895E8EDF0E080818F7E8083E7EDF0E072
:1007900080818160808384E082BF81E08093150145
:1007A000B0CFE8EDF0E080818E7F80831092E20090
:1007B00008951092DA001092E10008951F920F92AE
:1007C0000FB60F9211242F933F934F935F936F9324
:1007D0007F938F939F93AF93BF93EF93FF938091FA
:1007E000E10082FF0AC08091E20082FF06C0809192
:1007F000E1008B7F8093E100F1DC8091DA0080FFE3
:1008000018C08091D80080FF14C08091DA008E7FDC
:100810008093DA008091D90080FF8AC080E189BD91
:1008200082E189BD09B400FEFDCF81E0809316010D
:1008300094DC8091E10080FF18C08091E20080FF8D
:1008400014C08091E2008E7F8093E2008091E200EC
:1008500080618093E2008091D80080628093D8000C
:1008600019BC85E080931601CBD18091E10084FF13
:1008700028C08091E20084FF24C080E189BD82E12C
:1008800089BD09B400FEFDCF8091D8008F7D809393
:10089000D8008091E1008F7E8093E1008091E2009A
:1008A0008F7E8093E2008091E20081608093E2007D
:1008B00080911201882309F440C084E080931601DE
:1008C0009FD18091E10083FF22C08091E20083FFED
:1008D0001EC08091E100877F8093E10082E08093D9
:1008E0001601109212018091E1008E7F8093E10049
:1008F0008091E2008E7F8093E2008091E20080612F
:100900008093E20042E060E080E0A8DE79D1FF91D0
:10091000EF91BF91AF919F918F917F916F915F9177
:100920004F913F912F910F900FBE0F901F901895F0
:1009300019BC1092160112DC7CCF8091E30087FD78
:1009400002C081E0BBCF83E0B9CF1F93CF93DF9389
:10095000CDB7DEB7AA970FB6F894DEBF0FBECDBFF6
:10096000E7E1F1E08091F100819321E0EF31F207BE
:10097000C9F7FBDB8091E80083FF10C0809117016D
:1009800090911801953009F4D8C000F5913009F420
:100990008BC008F461C0933009F486C08091E800F0
:1009A00083FF0AC08091E800877F8093E8008091F0
:1009B000EB0080628093EB00AA960FB6F894DEBF3E
:1009C0000FBECDBFDF91CF911F910895983009F4EC
:1009D000ECC0993009F4F6C0963001F780588230A7
:1009E000E8F68091190190911A018C3D23E092075D
:1009F00009F0C6C083E08A838AE289834FB7F894FE
:100A0000DE01139620E03EE051E2E32FF0E0509348
:100A10005700E49120FF03C0E295EF703F5FEF7055
:100A20008E2F90E0EA3008F4A9C0C7968D939D936D
:100A30002F5F243151F74FBF8091E800877F80936B
:100A4000E8006AE270E0CE0101960EDD8091E800D8
:100A50008B778093E800A2CF803899F0823809F034
:100A60009DCF80911B018F70873008F097CF8093C6
:100A7000E9008091EB0085FB882780F91092E9005E
:100A800006C08091130190911401911182609091A0
:100A9000E800977F9093E8008093F1001092F100B6
:100AA0008091E8008E7732C0282F2D7F09F076CF15
:100AB0008823E9F0823009F071CF8091190181110A
:100AC00020C080911B018F702FEF280F263008F077
:100AD00065CF8093E9002091EB0020FF12C0933096
:100AE000C9F48091EB0080628093EB000AC0809192
:100AF0001901813009F052CF933009F080E08093E2
:100B000014011092E9008091E800877F8093E8004B
:100B1000D9DD44CF9091EB0090619093EB0021E000
:100B200030E001C0220F8A95EAF72093EA00109284
:100B3000EA008091EB008860D7CF81112FCF109110
:100B400019011F778091E3008078812B8093E30067
:100B50008091E800877F8093E800B4DD8091E80011
:100B600080FFFCCF8091E30080688093E30083E006
:100B7000111101C082E08093160110CFC09656CFAC
:100B800060911B0170911C01AE014F5F5F4F3CDC17
:100B9000BC01892B09F402CF9091E800977F9093D4
:100BA000E80089819A81FADC51CF803809F0F6CECD
:100BB0008091E800877F8093E80080911201809304
:100BC000F1006ECF8111EACE90911901923008F0B8
:100BD000E5CE8091E800877F8093E8009093120132
:100BE00071DD80911201882329F084E08093160141
:100BF000B6DAD4CE8091E30087FDF7CF81E0F6CF5F
:100C00000895CF9380911601882391F0C091E90057
:100C1000CF708091EC0080FD0DC080E0C82B109259
:100C2000E9008091E80083FD90DECF70C093E90079
:0C0C3000CF91089580E8F2CFF894FFCF38
:00000001FF
