:10000000ABC00000C5C00000C3C00000C1C00000FC
:10001000BFC00000BDC00000BBC00000B9C00000F0
:10002000B7C00000B5C00000B3C0000096C6000015
:10003000AFC00000ADC00000ABC00000A9C0000010
:10004000A7C00000A5C00000A3C00000A1C0000020
:100050009FC000009DC000009BC0000099C0000030
:1000600097C0000095C0000093C0000091C0000040
:100070008FC000001C0350004900550020004800BC
:10008000490044002000560031002E0030003000AE
:1000900000000C0350004900550049004F000000CB
:1000A000120341004E00440041004D00490052003F
:1000B0004F0000000C034E00540044004500430074
:1000C00000000403090409022900010100C03209EB
:1000D0000400000203000000092111010001222098
:1000E0000007058103100001070502031000010647
:1000F00000FF0901A1010902150025FF75089510EF
:1001000081020903150025FF750895109102C009A9
:10011000021200010100C0320904000000000000CA
:100120000012011001000000082F0D201000010135
:1001300002000112011001000000082F0D20100123
:10014000000102000112010001FF00000847050242
:10015000100001010200010011241FBECFEFD2E008
:10016000DEBFCDBF11E0A0E0B1E0E4E9F1E102C003
:1001700005900D92AC33B107D9F721E0ACE3B1E0C3
:1001800001C01D92A337B207E1F726D00C94C8082E
:1001900037CF4AB121E030E0B90102C0660F771FC6
:1001A0008A95E2F7CB01462B4AB99BB1809589230A
:1001B0008BB908954AB121E030E0B90102C0660F61
:1001C000771F8A95E2F7CB01962F909594239AB9E1
:1001D0009BB1892B8BB90895CF93DF9300D0CDB716
:1001E000DEB710924501109244016CD189E190E094
:1001F0009093CD008093CC0086E08093CA0010924B
:10020000C80088E18093C900539A5A9A7894E6E42A
:10021000F1E0AEE4B1E089E09FEF815009F08AC0DF
:1002200088E080933C0106E594D297D78091440101
:1002300090914501893E934014F084E0AADF8091BB
:10024000440190914501813D974034F084E0B2DF54
:10025000109245011092440180914E0180933D011E
:100260008091500180933E018091510190914F0106
:1002700092FF63C0806880933F018091C80085FF32
:10028000FCCF0093CE0090E080E02091C80027FFD3
:1002900056C02091C80027FD59C019811093400114
:1002A000FA80F09241011F3F21F48FEFF81609F414
:1002B0008FC085E06EDF909147018091490115FD67
:1002C0008AC09F77909347018F77809349019091DF
:1002D00047018091490116FD83C09F7B90934701A0
:1002E0008F7B809349019091470180914901F5FCF2
:1002F0007CC09D7F909347018D7F80934901212F82
:10030000206E209340018091470117FD73C08B7FC1
:10031000809347019F2D906A9093410180914901FC
:10032000F7FC6AC08B7F809349012093460190932C
:1003300048017ACF91931D9270CF8F779CCF019611
:10034000803127E2920709F0A0CF6ECF2091C8003C
:1003500027FF9FCF2091CE002E3A09F09ACF10921E
:100360003C01E0913C01E33038F010923C012091D7
:100370003C012230B8F08DCFF0E0E35CFE4F2081ED
:100380003091C80035FFFCCF2093CE0020913C0176
:100390002F5F20933C01E5CF0196803137E2930730
:1003A0000CF042CF3091C80037FFF6CF3091C80033
:1003B0004FEF5FEF37FD4091CE00E1E0F0E0EC0F52
:1003C000FD1FE20FF11D40832F5F20933C01CFCF33
:1003D00085E0F0DE70CF906890934701806875CF1C
:1003E00090649093470180647CCF92609093470122
:1003F000826083CF84608CCF846095CF292F332790
:1004000023303105F1F158F421303105D1F022309B
:10041000310529F190E080E0F0E0E0E00EC089E0F5
:1004200090E0E8EDF0E02132310539F080E290E033
:10043000EFEEF0E02232310569F7DA01ED93FC933B
:100440000895E0911801F0911901EE0FFF1FEE5E83
:10045000FE4F0190F081E02D82E190E0EECF80919F
:10046000180190911901880F991FFC01E45FFE4F5C
:100470000190F081E02D855D9E4FDC018D919C9176
:10048000DCCF99278130910589F058F0029711F659
:10049000E0911801F0911901EE0FFF1FE050FF4F9E
:1004A0000DC0E2ECF0E0849190E0C7CFE09118013C
:1004B000F0911901EE0FFF1FEA5FFE4F0190F081EE
:1004C000E02DF1CFA89584B7877F84BF0FB6F8944D
:1004D000A895809160008861809360001092600010
:1004E0000FBE80E890E00FB6F8948093610090937F
:1004F00061000FBE23C40895089580911801909162
:100500001901892B41F061E086E391E054D361E069
:1005100081E391E050D38091E20084608093E20017
:10052000089580916C018E3A41F580911801909167
:100530001901892B11F58091440190914501019693
:10054000909345018093440180916B011092E900E2
:1005500087FD14C08091E80080FFFCCF8091E80007
:10056000877F8093E80068E070E08EE491E05BD2E2
:100570008091E8008E778093E80008958091E800EC
:10058000877F8093E80068E070E086E491E0EFD137
:100590008091E8008B77EFCFCF93DF93CDB7DEB7B5
:1005A00060970FB6F894DEBF0FBECDBF80916C018F
:1005B000833009F458C070F4813089F1823009F435
:1005C0009AC060960FB6F894DEBF0FBECDBFDF9124
:1005D000CF9108958A3009F473C08B3009F45CC060
:1005E000893079F780916B01813259F78091E80069
:1005F000877F8093E80060E170E0CE01019613D21E
:100600008091E8008E778093E80080E1FE013196CA
:10061000A6E5B1E001900D928A95E1F7D2CF8091E5
:100620006B01813A71F690916D0180E1EBE1F1E0AF
:10063000DE01119601900D928A95E1F71092E90082
:100640008091E800877F8093E80091119093F100FA
:1006500060E170E0CE0101968AD18091E8008B774D
:100660008093E800AECF80916B01813A09F0A9CF69
:100670008091E800877F8093E8008091E80080FF08
:10068000FCCF80911A018093F1008091E8008E7771
:100690008093E800CCD295CF80916B01813209F034
:1006A00090CF8091E800877F8093E800C0D290913E
:1006B0006D0181E0911101C080E080931A0181CF2A
:1006C00080916B01813209F07CCF8091E800877FB7
:1006D0008093E800ACD280916D0190916E0136E07C
:1006E000969587953A95E1F78C7F937090934301A7
:1006F0008093420166CF80916B01813A09F061CF0E
:100700008091E800877F8093E8008091E80080FF77
:10071000FCCF8091420190914301969587959695E3
:100720008795B1CF8091E80083FF11C080916F0160
:1007300090917001892B59F48091180190911901C1
:10074000009709F4EECE0197029708F425CF08959B
:1007500008958091180190911901892B09F46AC0BC
:100760008091460180931B0180931C0180931D01A1
:1007700080931E018091480180931F018093200186
:10078000809321018093220180914701809323016E
:1007900080914901809324018FEF809325018093FC
:1007A00026018093290180932A0181E08093E9004A
:1007B0008091E80080FF15C080914401909145012F
:1007C0000196909345018093440150E040E060E140
:1007D00070E08BE191E02FD08091E8008E778093DC
:1007E000E80082E08093E9008091E80082FF19C070
:1007F0008091E80085FF10C08091440190914501EF
:100800000196909345018093440150E040E060E1FF
:1008100070E086E591E05DD08091E8008B77809371
:10082000E80088E0E6E5F1E0AEE4B1E001900D9289
:100830008A95E1F70895AF92BF92CF92DF92FF922F
:100840000F931F93CF93DF936C01EB018A010ED2BC
:10085000F82E811124C00115110539F0F8018081AD
:100860009181C81BD90BC80ED91EB12CA12C209781
:10087000B1F08091E80085FD22C08091E8008E777C
:100880008093E8006AD401151105A1F0F801808178
:100890009181A80EB91EB182A08285E0F82E8F2D1D
:1008A000DF91CF911F910F91FF90DF90CF90BF907C
:1008B000AF900895DBD18823D1F2F82EF0CFF60166
:1008C00081916F018093F1002197FFEFAF1ABF0A6A
:1008D000CECFAF92BF92CF92DF92FF920F931F9332
:1008E000CF93DF936C01EB018A01C0D1F82E811107
:1008F00024C00115110539F0F80180819181C81BD0
:10090000D90BC80ED91EB12CA12C2097B1F0809123
:10091000E80085FD22C08091E8008B778093E80095
:100920001CD401151105A1F0F80180819181A80E58
:10093000B91EB182A08285E0F82E8F2DDF91CF9174
:100940001F910F91FF90DF90CF90BF90AF900895CF
:100950008DD18823D1F2F82EF0CF8091F100F601ED
:1009600081936F012197FFEFAF1ABF0ACECFFC0131
:10097000809171019091720186179707A0F061151F
:10098000710529F49091E8009E779093E80090E03B
:100990006115710551F4911108C08091E80082FF42
:1009A00032C080E00895BC01F2CF80916A018823B3
:1009B000B1F18530B1F18091E80083FD2EC08091C6
:1009C000E80082FDEACF8091E80080FFE1CF20912E
:1009D000F20030E06115710519F02830310558F04A
:1009E00091E02830310509F090E02091E8002E7761
:1009F0002093E800CDCF81918093F100615071097F
:100A00002F5F3F4FE7CF80916A01882341F0853007
:100A100041F08091E80083FFC0CF81E0089582E03B
:100A2000089583E00895FC016115710529F4909102
:100A3000E8009B779093E8006115710531F480918F
:100A4000E80080FF1BC080E0089580916A01882340
:100A5000F9F08530C9F08091E80083FD17C08091DE
:100A6000E80082FFE9CF8091F200882301F38091B2
:100A7000F100819361507109B1F7D9CF80916A017A
:100A8000882331F08530D9F683E0089581E0089518
:100A900082E00895FC0180917101909172018617A6
:100AA0009707A0F06115710529F48091E8008E7711
:100AB0008093E80090E06115710551F4911108C030
:100AC0008091E80082FF33C080E00895BC01F2CF3E
:100AD00080916A018823B9F18530B9F18091E800ED
:100AE00083FD2FC08091E80082FDEACF8091E8006D
:100AF00080FFE1CF2091F20030E06115710519F01F
:100B00002830310558F091E02830310509F090E0A7
:100B10008091E8008E778093E800CDCF8491809318
:100B2000F1003196615071092F5F3F4FE6CF809100
:100B30006A01882341F0853041F08091E80083FF0D
:100B4000BFCF81E0089582E0089583E00895982F53
:100B5000953028F08F708093E90081E0089590939C
:100B6000E900242F762F50E0981731F07091EC00B7
:100B70002091ED005091F00021FD02C09F5FE8CF71
:100B80003091EB003E7F3093EB003091ED003D7FE4
:100B90003093ED003091EB0031603093EB007093B7
:100BA000EC002093ED005093F0002091EE0027FD23
:100BB000E5CF80E008950F931F93CF93DF93062F27
:100BC000EC0110E0101302C081E00FC02881211158
:100BD00003C01F5F2596F6CF9C81A981BA816B81E6
:100BE000822F8F70853030F080E0DF91CF911F91A0
:100BF0000F91089542E0923008F046E0E8E0F0E01E
:100C000090E0EA17FB0778F09295907F492B629568
:100C1000660F660F607C221F2227221F622B97DF40
:100C20008111D7CFE1CF9F5FEE0FFF1FEACF8091F9
:100C30006B0187FF13C08091E80082FF06C080919E
:100C4000E8008B778093E80004C080916A018111ED
:100C5000F2CF089580916A018823D9F38091E8004A
:100C600080FFF8CF8091E8008E77ECCF2091E400F0
:100C70003091E50085E69091EC0090FF06C09091E0
:100C8000E80090FF06C080E008959091E80092FD92
:100C9000FACF90916A01992391F0953091F090915B
:100CA000EB0095FD10C04091E4005091E500241741
:100CB000350709F381509A01F1F684E0089582E046
:100CC000089583E0089581E0089541D043D0809154
:100CD000D8008F778093D8008091D8008068809367
:100CE000D8008091D8008F7D8093D80084E089BDA2
:100CF00086E089BD09B400FEFDCF10926A01109212
:100D00006601109268011092670142E060E080E0A5
:100D10001EDF8091E1008E7F8093E1008091E200F0
:100D200081608093E2008091E20088608093E2001D
:100D30008091E0008E7F8093E0000895E3E6F0E08C
:100D400080818E7F808381E080936901BECF109285
:100D5000E20008951092E10008951F920F920FB6DD
:100D60000F9211242F933F934F935F936F937F9331
:100D70008F939F93AF93BF93EF93FF938091E10085
:100D800082FF0AC08091E20082FF06C08091E100EC
:100D90008B7F8093E100DCDC8091E10080FF17C055
:100DA0008091E20080FF13C08091E2008E7F8093EB
:100DB000E2008091E20080618093E2008091D8009F
:100DC00080628093D80019BC10926A0195DB8091F3
:100DD000E10084FF27C08091E20084FF23C084E00B
:100DE00089BD86E089BD09B400FEFDCF8091D800A1
:100DF0008F7D8093D8008091E1008F7E8093E10009
:100E00008091E2008F7E8093E2008091E200816019
:100E10008093E200809166018823D9F184E0809379
:100E20006A0169DB8091E10083FF22C08091E200CA
:100E300083FF1EC08091E100877F8093E10082E004
:100E400080936A01109266018091E1008E7F809309
:100E5000E1008091E2008E7F8093E2008091E200C9
:100E600080618093E20042E060E080E070DE74D157
:100E7000FF91EF91BF91AF919F918F917F916F9172
:100E80005F914F913F912F910F900FBE0F901F9048
:100E900018958091E30087FD02C081E0C0CF83E018
:100EA000BECF1F93CF93DF93CDB7DEB7AA970FB610
:100EB000F894DEBF0FBECDBFEBE6F1E08091F1000C
:100EC000819321E0E337F207C9F72CDC8091E80039
:100ED00083FF10C080916B0190916C01953009F4F3
:100EE000D8C000F5913009F48BC008F461C093308C
:100EF00009F486C08091E80083FF0AC08091E80071
:100F0000877F8093E8008091EB0080628093EB0004
:100F1000AA960FB6F894DEBF0FBECDBFDF91CF917A
:100F20001F910895983009F4ECC0993009F4F6C087
:100F3000963001F780588230E8F680916D019091EB
:100F40006E018C3D23E0920709F0C6C083E08A83DE
:100F50008AE289834FB7F894DE01139620E03EE0E1
:100F600051E2E32FF0E050935700E49120FF03C0DB
:100F7000E295EF703F5FEF708E2F90E0EA3008F45B
:100F8000A9C0C7968D939D932F5F243151F74FBF12
:100F90008091E800877F8093E8006AE270E0CE01EC
:100FA0000196E5DC8091E8008B778093E800A2CF82
:100FB000803899F0823809F09DCF80916F018F7051
:100FC000853008F097CF8093E9008091EB0085FB96
:100FD000882780F91092E90006C0809167019091FE
:100FE0006801911182609091E800977F9093E800EA
:100FF0008093F1001092F1008091E8008E7732C06A
:10100000282F2D7F09F076CF8823E9F0823009F070
:1010100071CF80916D01811120C080916F018F701F
:101020002FEF280F243008F065CF8093E90020913E
:10103000EB0020FF12C09330C9F48091EB00806276
:101040008093EB000AC080916D01813009F052CF8E
:10105000933009F080E0809368011092E90080915C
:10106000E800877F8093E800E2DD44CF9091EB00B9
:1010700090619093EB0021E030E001C0220F8A954F
:10108000EAF72093EA001092EA008091EB00886072
:10109000D7CF81112FCF10916D011F778091E30081
:1010A0008078812B8093E3008091E800877F809394
:1010B000E800BDDD8091E80080FFFCCF8091E30077
:1010C00080688093E30083E0111101C082E0809387
:1010D0006A0110CFC09656CF60916F017091700178
:1010E000AE014F5F5F4F8AD9BC01892B09F402CF53
:1010F0009091E800977F9093E80089819A81CADCFB
:1011000051CF803809F0F6CE8091E800877F809338
:10111000E800809166018093F1006ECF8111EACEE4
:1011200090916D01923008F0E5CE8091E800877FC4
:101130008093E800909366017ADD809166018823B0
:1011400029F084E080936A01D8D9D4CE8091E3005D
:1011500087FDF7CF81E0F6CF0895CF9380916A01A4
:10116000882391F0C091E900CF708091EC0080FD60
:101170000DC080E0C82B1092E9008091E80083FD4B
:1011800090DECF70C093E900CF91089580E8F2CF50
:04119000F894FFCF01
:10119400920074007400B400A000A0000F01C60007
:1011A400C6004501330121010100010000000000D7
:1011B400000000000000000000FFFF1200290029C9
:0C11C40000021000030181100003010074
:00000001FF
